:020000040800F2
:1000000088060020A50100086B150008C714000829
:10001000691500083F040008FF17000800000000F1
:100020000000000000000000000000001916000899
:1000300041040008000000006D1500081B160008B0
:10004000BF010008BF010008BF010008BF01000890
:10005000BF010008BF010008BF010008BF01000880
:10006000BF010008BF010008BF010008BF01000870
:10007000BF010008BF010008BF010008BF01000860
:10008000BF010008BF010008BF010008BF01000850
:10009000BF010008BF010008BF010008BF01000840
:1000A000BF010008BF010008BF010008E5160008F5
:1000B000BF0100080000000000000000BF010008B0
:1000C000BF0100080000000000000000BF010008A0
:1000D00000000000BF010008BF0100080000000090
:1000E000BF010008BF010008000000000000000080
:1000F0000000000000000000000000000000000000
:10010000000000000000000000000000BF01000827
:100110000000000000000000BF010008BF0100084F
:10012000BF010008BF010008BF010008BF010008AF
:10013000BF010008000000000000000000000000F7
:10014000BF010008BF010008BF010008BF0100088F
:10015000BF010008BF010008BF010008BF0100087F
:10016000BF010008BF010008BF0100080000000037
:10017000BF010008BF0100080000000000000000EF
:10018000BF010008BF010008BF010008DFF810D060
:1001900000F034F900480047ED190008AFF3008083
:1001A000880600200648804706480047FEE7FEE72D
:1001B000FEE7FEE7FEE7FEE7FEE7FEE7FEE7FEE717
:1001C000A11600088D010008D2B201E000F8012B51
:1001D000491EFBD270470022F6E710B513460A46C7
:1001E00004461946FFF7F0FF204610BD2DE9FE4FEB
:1001F00081EA030404F0004421F0004100944FF030
:10020000000B23F0004350EA01045ED052EA0304DD
:100210005BD0C3F30A54C1F30A552C44A4F2F3345F
:100220000194A0FB0254C1F3130141F48011C3F304
:10023000130343F4801301FB024400FB034E840AC2
:10024000970A44EA815447EA8357A4FB076802955A
:100250008D0A05FB07854FEA932C04FB0C542705F8
:10026000029D4FEA065847EA1637B5EB08056EEBD4
:10027000070C870E920E47EA811742EA8312A7FB0A
:100280000201B6EB0B0164EB00042B0D43EA0C33C7
:100290005E1844EB1C50DA465146E7FB0201C5F3F9
:1002A00013044FEA0B3343EA14534FEA0432019C20
:1002B00043EA0603A4F10C040294009CCDE900B4C7
:1002C00000F04EF803B000F003B800200146F9E753
:1002D00030BCBDE8C08F0EB540F233410291002121
:1002E000CDE900110A460B4600F03AF803B000BD14
:1002F000C1F30A5210B5C1F3130140F2FF3341F4C8
:1003000080119A4201DA002010BD40F233439A4234
:10031000A2F2334203DC524200F003F810BD9040D9
:1003200010BD202A04DB203A21FA02F00021704798
:1003300021FA02F3D040C2F120029140084319464D
:10034000704710B5141E73F1000408DA401C41F127
:10035000000192185B411A4301D120F0010010BD49
:100360002DE9F04D92469B4611B1B1FA81F202E0BF
:10037000B0FA80F22032904600F052F804460F4660
:1003800040EA0A0041EA0B0153465A46084313D09B
:10039000114653EA010019D0C8F140025046FFF758
:1003A000C0FF05460E4650465946424600F038F812
:1003B000084305D0012004E020463946BDE8F08D11
:1003C0000020054346EAE0762C4337430A9863054C
:1003D000E40AA0EB08000022FD0A44EA47540A3070
:1003E00002D500200146E9E7010510196941DDE960
:1003F000084500196941BDE8F04DA2E7064C074DDC
:1004000006E0E06840F0010394E8070098471034E4
:10041000AC42F6D3FFF7BEFE581B0008781B00085D
:10042000202A04DB203A00FA02F1002070479140B4
:10043000C2F1200320FA03F3194390407047FEE70E
:10044000704700002DE9FC4FDFF880A10023012553
:100450000AF1040B03244FF00F0C0BF1040EAEE075
:1004600005FA03F632406FD04F68012F05D0022FF6
:1004700003D0112F01D0122F17D1D0F808905F00B0
:1004800004FA07F829EA08090097D1F80C8008FA5D
:1004900007F848EA0908C0F808804768B7430E79AA
:1004A000C6F300169E403E434660C6684FEA4308C6
:1004B00004FA08F7BE4301978F6807FA08F7374335
:1004C000C7604E68022E01D0122E13D1DE0800EB59
:1004D00086060096366A5F07FF0E0CFA07F926EAD1
:1004E0000906D1F8109009FA07F949EA0609009EB1
:1004F000C6F820900768019EB7430E7906F0030600
:1005000006FA08F63E4306604E68F60056D5304EB1
:10051000376E47F001073766366E23F0030706F0A3
:10052000010600962B4E3E44B146B6689F074FEA3F
:1005300017780CFA08F7BE43B0F1904F05D0264F5C
:10054000B84204D1012708E038E0002705E0234F36
:10055000B84201D1022700E0072707FA08F737431E
:10056000C9F80870DAF800605746D1F8048096435D
:100570005FEAC83800D516433E60DBF800605F468E
:10058000D1F8048096435FEA883800D516433E6070
:10059000DEF800607746D1F8048096435FEAC82809
:1005A00000D516433E60094F0C373E68D1F80480F1
:1005B00096435FEA882800D516433E605B1C0A68B4
:1005C00032FA03F67FF44CAF00F00AB800040140A1
:1005D00000100240000001400004004800080048EC
:1005E0001CBCBDE8E08F0AB1816170478162704731
:1005F000014880687047000024000020024881689C
:1006000002781144816070472400002010B5002456
:10061000032000F071F8002000F008F808B1012470
:1006200001E000F025F8204610BD000070B50E4E28
:1006300005460024307898B14FF47A71B1FBF0F0A0
:100640000A490968B1FBF0F000F03CFC40B9102DFC
:1006500006D200222946501E00F02EF8756000E0F8
:100660000124204670BD000024000020300000203E
:10067000094808B5016E41F001010166016E01F003
:1006800001010091816D41F080518165806D00F024
:100690008050009008BD000000100240002809DBD7
:1006A00000F01F02012191404009800000F1E0208C
:1006B000C0F8001170470000F0B40E4B1B680C46E8
:1006C000C3F30223C3F10705042D00D90425191D26
:1006D000072901D2002300E0DB1E012606FA05F1FE
:1006E000491E214099409E40761E16403143F0BC81
:1006F00001F086B80CED00E0064900F0070208683A
:100700004FF6FF03184040EA0220034A10430860F6
:10071000704700000CED00E00000FA051649B0F546
:10072000007F0868C0F3412009D0022805D008687E
:1007300020F4C06040F48060086000207047012809
:10074000FBD0086820F4C06040F4007008600B48DB
:100750003222006850430A4AB0FBF2F0401C00E02D
:10076000401E4A69520501D50028F9D14869400563
:10077000E3D50320704700000070004030000020E7
:1007800040420F000248006800F4C060704700005B
:10079000007000402DE9F0470F46050058D0404E4C
:1007A000306800F00700B84209D2306820F0070036
:1007B00038433060306800F00700B84248D12878EC
:1007C000384CC0072CD06868032811D0022812D0FA
:1007D000216898B1490500293ADAA16821F003019E
:1007E0000143A160FFF704FF804641F2883910E021
:1007F00021688901EFE721688903ECE78907EAE7C7
:10080000FFF7F6FEA0EB0801494502D90320BDE839
:10081000F087A068696800F00C00B0EB810FEFD1A1
:100820002878800705D5A068A96820F0F000084363
:10083000A060306800F00700B8420BD9306820F0A3
:10084000070038433060306800F00700B84201D03C
:100850000120DCE72878400705D5A068E96820F486
:10086000E0600843A0602878000706D5A0682969E1
:1008700020F4605040EAC100A06000F01BF8A168BD
:10088000094AC1F30311515C01F01F01C840074937
:10089000086007480068BDE8F047FFF7C7BE0000E2
:1008A0000020024000100240181B00083000002009
:1008B0002800002070B52549002318468A68CC68B6
:1008C00012F00C0204F00306214C4FEA640509D033
:1008D0000C2A05D0042A32D0082A00D1284670BD3F
:1008E000012E10D10B681B0704D4D1F89430C3F348
:1008F000032302E00B68C3F30313164E56F82330AC
:10090000DAB10C2AEBD1C86800F00300022818D035
:10091000032818D01846CA68CB68C2F30212C3F382
:1009200006234343521CB3FBF2F2C868C0F3416094
:10093000401C4000B2FBF0F070BD184670BD204670
:1009400070BD2046E7E72846E5E7000000100240BA
:100950000024F400281B00082DE9F84304006FD0A0
:10096000FE4DA86800F00C06E86800F00307207848
:10097000C00664D576B10C2E01D1012F0AD0A06932
:10098000002828687AD040F001002860FFF730FE88
:1009900080465DE02868800702D5A0690028DED087
:1009A000216A2868000703D5286800F0F00004E0F9
:1009B000D5F89400F02202EA1010814216D90846B8
:1009C00000F0DEFD00283BD1286840F008002860D8
:1009D0002868216A20F0F000084328606868E1690F
:1009E00020F47F4040EA0120686016E0286840F06B
:1009F000080028602868216A20F0F0000843286079
:100A00006868E16920F47F4040EA0120686026B907
:100A1000206A00F0B5FD0028D5D1FFF74BFFA9688B
:100A2000CF4AC1F30311515C01F01F01C840CD4909
:100A30000860CD480068FFF7F9FD00287ED12EE060
:100A4000CAE000BFFFF7D4FDA0EB0800022876D86B
:100A500028688007F6D5286840F0080028602868D4
:100A6000216A20F0F000084328606868E16920F4FA
:100A70007F4040EA0120686011E0FFE720F00100BC
:100A80002860FFF7B5FD804606E000BFFFF7B0FD28
:100A9000A0EB08000228DAD828688007F6D420786E
:100AA000C00740D0082E18D00C2E01D1032F14D02F
:100AB0006068B0F5803F17D0B0F5A02F286817D038
:100AC00020F480302860286820F480202860606846
:100AD000E0B1FFF78DFD804614E02868800322D541
:100AE0006068002878D01EE0286840F48030EDE788
:100AF00040F480202860F7E7FFF77AFDA0EB0800BC
:100B00006428A4D828688003F6D50CE0FFF770FDB0
:100B1000804605E0FFF76CFDA0EB0800642896D83E
:100B200028688003F6D4207880073BD5042E11D0A6
:100B30000C2E01D1022F0DD0E06801E0B6E1FFE0FC
:100B4000002828681ED040F480702860FFF750FD10
:100B500007460CE0286840050CD5E0680028C1D0A5
:100B600008E000BFFFF744FDC01B022893D82868A7
:100B70004005F7D56868217C20F0FE4040EA01601E
:100B800068600FE020F480702860FFF731FD0746B1
:100B900005E000BFFFF72CFDC01B0228B1D8286874
:100BA0004005F7D42078000729D560690028D5F8DA
:100BB000940012D040F00100C5F89400FFF718FD32
:100BC000074604E0FFF714FDC01B022899D8D5F8AA
:100BD00094008007F6D512E02BE120F00100C5F863
:100BE0009400FFF705FD074605E000BFFFF700FD95
:100BF000C01B022885D8D5F894008007F6D4207849
:100C0000400766D5A86D0027C00008D4A86D40F045
:100C10008050A865A86D012700F0805000905348CF
:100C20000168C90512D40168814641F480710160F0
:100C3000FFF7DEFC804605E0FFF7DAFCA0EB0800DA
:100C400002287DD8D9F80000C005F5D5A068012894
:100C500016D00528D5F8900017D020F00100C5F86F
:100C60009000D5F8900020F0040000BFC5F8900077
:100C7000A06841F28839C0B1FFF7BAFC80460FE0A6
:100C8000D5F8900040F00100F0E740F00400C5F80E
:100C90009000F5E7FFF7ACFCA0EB080149454FD801
:100CA000D5F890008007F5D50EE0FFF7A1FC80464F
:100CB00006E000BFFFF79CFCA0EB080149453FD8C8
:100CC000D5F890008007F5D41FB1A86D20F08050B2
:100CD000A8652078800628D5606A0028D5F8980095
:100CE00012D040F00100C5F89800FFF781FC0746DC
:100CF00005E000BFFFF77CFCC01B022820D8D5F818
:100D000098008007F6D510E020F00100C5F89800A3
:100D1000FFF76EFC074604E0FFF76AFCC01B0228E1
:100D20000ED8D5F898008007F6D4A06AA8B102289A
:100D300024D00C2E7DD0286820F08070286000E040
:100D4000B3E02868000103D4E86820F00300E860FD
:100D5000E86807490840E8600CE09FE000100240A6
:100D6000181B000830000020280000200070004000
:100D7000FFFFEEFEFFF73CFC044699E0E868E26AFC
:100D800000F00301914226D1216B00F070020901AD
:100D9000103991421FD1626B00F4FE41B1EB022F7A
:100DA00019D194F8382000F07841B1EBC26F12D11C
:100DB000A18F00F4C00249084905A1F50011914234
:100DC00009D194F8401000F0C06049084906A1F12B
:100DD000007181424BD00C2E6FD0286840016CD43A
:100DE000286820F080702860FFF702FC064604E0C7
:100DF000FFF7FEFB801B022857D828688001F7D434
:100E0000F4E90B016FF00F0202EB01110843218A94
:100E10005204490802EB4151A26841EA0221084309
:100E2000217D4FF07E42490802EB41610843217B5E
:100E300000E042E040EAC160E968214A114008430D
:100E4000E860286840F080702860E86840F08070B2
:100E5000E860FFF7CDFB044605E000BFFFF7C8FBE5
:100E6000001B022821D828688001F7D523E02868D4
:100E7000800120D4286840F080702860E86840F045
:100E80008070E860FFF7B4FB044604E0FFF7B0FBB6
:100E9000001B022809D828688001F7D50BE000BFA5
:100EA000FFF7A6FB001B022802D90320BDE8F88348
:100EB00028688001F4D40020F8E70120F6E700005C
:100EC0008C809D0110B5401EB0F1807F01D30120C0
:100ED00010BD4FF0E02460610F21601700F090FC1E
:100EE0000020A06107202061002010BD70477047DE
:100EF00070470000F0B590F83C20012A29D0012469
:100F000080F83C40022280F83D2003685A689D68C2
:100F1000114EB34203D122F470074A683A4322F0DB
:100F200070070A683A435A600268B24205D0B2F1CB
:100F3000804F02D0094B9A4204D1896825F0800382
:100F40001943916080F83D40002180F83C1008462C
:100F5000F0BD0220F0BD0000002C01400040014027
:100F600070B50546007F012822D1274C207870B14A
:100F700001281DD10021284600F08FFAE061296880
:100F800000264E62A169884213D9401A19E0002157
:100F9000284600F082FAA061012020702868016ACA
:100FA00021F00A0101622868016A41F00201016230
:100FB00070BD814201D8206A04E04FF6FF72511AD9
:100FC00008442062FFF787F99FED101B53EC112BAB
:100FD000FFF70CF99FED0F1B53EC112BFFF706F9F0
:100FE000FFF786F9607026702868016A21F00A010F
:100FF00001622868016A016208480068C16821F03E
:101000000201C16070BD0000000000209CC420B03F
:101010007268A13F000000000000E03F3C0000209B
:101020002DE9F041054690F83C000C46012836D0E9
:10103000012085F83C008AB3042A42D02868082A97
:1010400051D0D4E90023E168066A26F4805606628E
:10105000C669076A26F4407646EA03234FF6FF7610
:1010600006EA013123F4704319434FF4204627F474
:10107000204306EA02321A43C16102622868C1694C
:1010800021F44061C1612868C169A26841EA022176
:10109000C161002085F83C00BDE8F08101E002203C
:1010A000FAE7D4E90012E368286800F065FB2868D5
:1010B000816921F00C01816128688169A26811436E
:1010C0000FE0D4E90012E368286800F07DFB28688F
:1010D000816921F44061816128688169A26841EADF
:1010E00002218161D5E7D4E90027267B016A21F43A
:1010F00080710162C169036A21F00301394321F063
:10110000F00731074FF4206647EA116123F42063AA
:1011100006EA02221A43C16102622868C16921F00D
:101120000C01C1612868C169A2681143B0E710B51C
:10113000040003D094F83D0010B107E0012010BD79
:10114000002084F83C00204600F022F8022084F8B9
:101150003D00211D206800F0CBFA012084F84800F2
:1011600084F83E0084F83F0084F8400084F8410091
:1011700084F8420084F8430084F8440084F8450071
:1011800084F8460084F8470084F83D00002010BD34
:1011900010B586B0044614216846FFF71CF81749BD
:1011A0002068884227D11648016E41F4006101662B
:1011B000016E01F400610591C16C41F00101C1644F
:1011C000C06C694600F0010005904FF480700090FB
:1011D00002200190002002900390012004904FF023
:1011E0009040FFF72FF9002211461B20FFF764FA09
:1011F0001B20FFF753FA06B010BD0000002C014081
:101200000010024010B5044679B1042912D0082913
:1012100015D00C2918D0102919D094F8430000BF1C
:1012200094F84720012817D114E094F83E0094F870
:101230004420F7E794F83F0094F84520F2E794F84B
:10124000400094F84620EDE794F84100E8E794F870
:101250004200E5E7012A01D0012010BD022071B152
:10126000042915D008291CD00C293FD0102940D0C2
:1012700084F8430084F847000C291BD13CE084F833
:101280003E0084F844002068C26842F0020210E088
:1012900084F83F0084F845002068C26842F00402E8
:1012A00007E084F8400084F846002068C26842F0F5
:1012B0000802C2600122206800F050FA114920683B
:1012C000884205D0B0F1804F02D00F49884207D143
:1012D00081680E4A1140062906D0B1F5803F03D03F
:1012E000016841F001010160002010BD84F8410057
:1012F000C0E784F84200BDE72068C26842F01002EF
:10130000D7E70000002C0140004001400700010029
:1013100070B50446006801694FF00005C9438907AC
:1013200015D4C168C943890711D4E91E01610120A0
:101330002077206880698007204602D0FFF710FEE2
:1013400004E000F0A7F8204600F0A5F82577206813
:101350000169C943490717D4C168C943490713D470
:101360006FF004010161022020772068806910F489
:10137000407F204602D0FFF7F3FD04E000F08AF83A
:10138000204600F088F8257720680169C9430907DD
:1013900016D4C168C943090712D46FF0080101616E
:1013A000042020772068C0698007204602D0FFF71C
:1013B000D7FD04E000F06EF8204600F06CF82577C9
:1013C00020680169C943C90617D4C168C943C90661
:1013D00013D46FF010010161082020772068C069E4
:1013E00010F4407F204602D0FFF7BAFD04E000F081
:1013F00051F8204600F04FF8257720680169C9436D
:10140000C90708D1C168C943C90704D1891E016150
:10141000204600F041F820680169C943090609D453
:10142000C168C943090605D46FF0800101612046F7
:10143000FFF75DFD20680169C943C90509D4C1688A
:10144000C943090605D46FF4807101612046FFF796
:101450004DFD20680169C943490609D4C168C943E3
:10146000490605D46FF040010161204600F02AF8DA
:1014700020680169C94389060BD4C168C94389063C
:1014800007D46FF0200101612046BDE87040FFF7EE
:101490002FBD70BD7047704770470246002041B1B4
:1014A000042909D008290AD00C2901D11068006C40
:1014B00070471068406B70471068806B7047106809
:1014C000C06B70477047FEE710B50748FFF7FAFC9E
:1014D00000210648FFF796FE054801210068BDE897
:1014E000104000F044B80000CE083D003C00002051
:1014F0001400002010B588B000241A480594069402
:1015000004940094019402941549039401604F21BE
:10151000C0E901144FF6FF71C0E90314446184610E
:10152000FFF705FE08B172B6FEE70494059404A91E
:101530000C480694FFF7DEFC08B172B6FEE7012006
:10154000CDE9004002940022694606480394FFF763
:1015500067FD002801D072B6FEE708B010BD00009C
:10156000002C01403C000020FEE7FEE77047002908
:1015700001DA002102E0082900DD082100F09ABA12
:10158000F8B51C4D06460024A86DC00002D5FFF733
:10159000F9F80DE0A86D40F08050A865A86D00F046
:1015A00080500090FFF7EEF8A96D21F08051A965F9
:1015B000B0F5007F04D0802E07D94FF003040AE075
:1015C000802E08D9A02E01D804E001D1022402E027
:1015D000702E00D101240848016821F00701214341
:1015E0000160006800F00700A04201D00120F8BDB2
:1015F0000020F8BD00100240002002400549896823
:101600000A6818B10146104600F026B9496810462C
:10161000FFF7ADBF00000020704710B5012000F0BB
:101620004DF9BDE81040FEF7E9BF10B596B0442172
:101630006846FEF7D0FD142111A8FEF7CCFD10205E
:1016400000900120002460210690CDE9074102218D
:10165000CDE90A100C9028200D900720CDE90E014D
:1016600068461091FFF778F908B172B6FEE70F20CF
:1016700011900320CDE912041494042111A81594AB
:10168000FFF788F808B172B6FEE74FF40070FFF775
:1016900045F8002801D072B6FEE716B010BD000074
:1016A0000D48016841F4700101600C48016841F087
:1016B00001010160002181600268094B1A4002604B
:1016C0008214C260026822F48022026081610249B1
:1016D000C00380390860704788ED00E000100240C8
:1016E000FFFFF6EA0148FFF713BE00003C000020B0
:1016F00070B50268164B4FF08046984201D0B04258
:1017000003D122F070044A682243124C124D9842D1
:1017100005D0B04203D0A04201D0A84203D122F4A8
:101720004076CA6832434E6922F08002324302603A
:101730008A68C2620A688262984203D0A04201D0DD
:10174000A84201D1096901630121416170BD000016
:10175000002C0140004001400044014010B501F060
:101760001F030121046A99408C430462016A9A4074
:101770001143016210BD000070B5046A24F0010439
:1017800004628469056A0E4EB04205D0B0F1804F04
:1017900002D00C4EB04203D124F00304144301E004
:1017A00044F001041A0724F0F00444EA126225F020
:1017B0000A0301F00A0119438261016270BD000051
:1017C000002C01400040014030B5046A24F01004B0
:1017D00004628469056A24F4407444EA022222F413
:1017E00070444FF6FF7202EA03322243A02425F030
:1017F000A00304EA011119438261016230BDFEE7D2
:101800000907090E002804DB00F1E02080F800142D
:10181000704700F00F0000F1E02080F8141D7047C1
:1018200002E008C8121F08C1002AFAD170477047A9
:10183000002001E001C1121F002AFBD17047000007
:10184000044900220B685A6209684A6A8242FCD342
:10185000704700003C0000202DE9F041164C064680
:10186000002720690D4600284FF00C000ED000F034
:10187000EBF88760C0E9006521694968A942E16821
:101880000EDD0A6882600860BDE8F08100F0DCF8D7
:1018900020618760C0E9006507481030E060F3E729
:1018A000096800E011468A6812B15368AB42F9DB5F
:1018B00082608860E8E700000000002070B50D4DF0
:1018C00006462C690EE06068801B606009D100212B
:1018D0002068FFF74CFEE968086882680A6000F03B
:1018E0005DF8A468002CEED12046BDE8704000F001
:1018F00055B800000000002070B5094CA068002811
:101900000CD060680568286880476068016889684D
:1019100001602846BDE8704000F040B870BD00008E
:10192000000000202DE9F04100244FF09045194EB1
:10193000C8270FE002212846FEF755FE6420FFF776
:101940007FFF002202212846FEF74DFE6420FFF7AC
:1019500077FF641C70784FF0010200EB800007EB0A
:101960004000A042E6DC01212846FEF73CFE0A20AA
:10197000FFF766FF002201212846FEF734FE0648E5
:101980000068C16841F00201C160BDE8F041022079
:10199000FFF734BE000000203C00002010B50028F6
:1019A00021D0114B0022001F196803E0814203D8A7
:1019B0000A4649680029F9D152B11368841A9C4239
:1019C00004D1006818441060104602E0506000E046
:1019D000186039B102680B1A934203D10B681A449C
:1019E00002604968416010BD3400002086B0FEF7F7
:1019F0000DFEFFF71AFE14216846FEF7ECFB1148B6
:101A0000C16C41F00101C164C06C4FF0904400F022
:101A100001000590002203212046FEF7E4FD03208B
:101A2000009001200021CDE9010103916946204683
:101A3000FEF708FDFFF75EFDFFF746FDFFF75CFFD1
:101A4000FCE7000000100240F0B50B30154D20F00F
:101A500007010024144A0FE003688B420BD38B422A
:101A600005D95E1A43184768C3E9006700E0436878
:101A7000136002C004E0021D10680028ECD120466B
:101A8000002802D1286808B10020F0BD064A0748A6
:101A90001060074A121A22F00702C0E90024012050
:101AA0002860D7E738000020340000208C00002098
:101AB000880200202DE9F041164C06460027A06858
:101AC0000D4600284FF00C000ED0FFF7BDFF8760D9
:101AD000C0E90065A1684968A94261680EDD0A682D
:101AE00082600860BDE8F081FFF7AEFFA06087600C
:101AF000C0E90065074808306060F3E7096800E066
:101B000011468A6812B15368AB42F9DB8260886083
:101B1000E8E70000000000200000000000000000D6
:101B20000102030406070809A0860100400D030016
:101B3000801A060000350C0040420F0080841E0011
:101B400000093D0000127A000024F40000366E0106
:101B50000048E801006CDC02781B0008000000204F
:101B60003C00000020180008B41B00083C000020C6
:101B70004C060000301800080000000000000000C3
:101B8000000000000000000000000000251900080F
:101B90000000000000000000000000000100000044
:101BA000100000000000000000093D0000000000DF
:041BB0000000000031
:040000050800018D61
:00000001FF
