:020000040800F2
:1000000000070020A5010008E7190008E316000812
:10001000E5190008B9020008B92200080000000034
:10002000000000000000000000000000C11B0008EC
:10003000BB02000800000000E9190008C31B00080B
:10004000BF010008BF010008BF010008BF01000890
:10005000BF010008BF010008BF010008BF01000880
:10006000BF010008BF010008BF010008BF01000870
:10007000BF010008BF010008BF010008BF01000860
:10008000BF010008BF010008BF010008BF01000850
:10009000BF010008BF010008BF010008BF01000840
:1000A000BF010008BF010008BF010008BF01000830
:1000B000BF0100080000000000000000BF010008B0
:1000C000BF0100080000000000000000BF010008A0
:1000D00000000000BF010008BF0100080000000090
:1000E000BF010008BF010008000000000000000080
:1000F0000000000000000000000000000000000000
:10010000000000000000000000000000BF01000827
:100110000000000000000000BF010008BF0100084F
:10012000BF010008BF010008BF010008BF010008AF
:10013000BF010008000000000000000000000000F7
:10014000BF010008BF010008BF010008BF0100088F
:10015000BF010008BF010008BF010008BF0100087F
:10016000BF010008BF010008BF0100080000000037
:10017000BF010008BF0100080000000000000000EF
:10018000BF010008BF010008BF010008DFF810D060
:1001900000F080F80048004715240008AFF3008005
:1001A000000700200648804706480047FEE7FEE7B4
:1001B000FEE7FEE7FEE7FEE7FEE7FEE7FEE7FEE717
:1001C000651C00088D0100082DE9F05F0546002040
:1001D00092469B4688460646814640241BE02846B8
:1001E00041464746224600F044F853465A46C01A54
:1001F000914110D311461846224600F02BF82D1AD3
:1002000067EB01084F4622460120002100F022F84A
:1002100017EB00094E41201EA4F10104DFDC484623
:1002200031462A46434600F000B830BCBDE8C09FC6
:10023000D2B201E000F8012B491EFBD27047002228
:10024000F6E710B513460A4604461946FFF7F0FFD5
:10025000204610BD202A04DB203A00FA02F10020DB
:1002600070479140C2F1200320FA03F319439040F4
:100270007047202A04DB203A21FA02F0002170475F
:1002800021FA02F3D040C2F12002914008431946FE
:1002900070470000064C074D06E0E06840F001039F
:1002A00094E8070098471034AC42F6D3FFF772FF8A
:1002B000A0250008C0250008FEE7704770B5044679
:1002C00000F0ECF80546601C02D0044800780444B5
:1002D00000F0E4F8401BA042FAD370BD1C000020DF
:1002E0002DE9FC4FDFF880A1002301250AF1040B62
:1002F00003244FF00F0C0BF1040EAEE005FA03F6E9
:1003000032406FD04F68012F05D0022F03D0112F3C
:1003100001D0122F17D1D0F808905F0004FA07F827
:1003200029EA08090097D1F80C8008FA07F848EA8A
:100330000908C0F808804768B7430E79C6F300166D
:100340009E403E434660C6684FEA430804FA08F7F9
:10035000BE4301978F6807FA08F73743C7604E68B6
:10036000022E01D0122E13D1DE0800EB8606009675
:10037000366A5F07FF0E0CFA07F926EA0906D1F87C
:10038000109009FA07F949EA0609009EC6F820907C
:100390000768019EB7430E7906F0030606FA08F6D1
:1003A0003E4306604E68F60056D5304E376E47F035
:1003B00001073766366E23F0030706F00106009644
:1003C0002B4E3E44B146B6689F074FEA17780CFAA9
:1003D00008F7BE43B0F1904F05D0264FB84204D184
:1003E000012708E038E0002705E0234FB84201D19B
:1003F000022700E0072707FA08F73743C9F8087013
:10040000DAF800605746D1F8048096435FEAC838AE
:1004100000D516433E60DBF800605F46D1F80480EB
:1004200096435FEA883800D516433E60DEF80060E8
:100430007746D1F8048096435FEAC82800D5164372
:100440003E60094F0C373E68D1F8048096435FEA5E
:10045000882800D516433E605B1C0A6832FA03F612
:100460007FF44CAF00F00AB80004014000100240D5
:100470000000014000040048000800481CBCBDE822
:10048000E08F426921EA02030A4043EA02418161A6
:1004900070470AB181617047816270470148806886
:1004A000704700001C00002090F84120202A24D131
:1004B00090F84020012A20D0012280F840202422F8
:1004C00080F841200268136823F00103136002687A
:1004D000136823F480531360026813680B4313609E
:1004E00001680A6842F001020A60202180F8411088
:1004F000002180F84010084670470220704790F8AD
:100500004120202A22D190F84020012A1ED0012229
:1005100080F84020242280F841200268136823F0EC
:10052000010313600268136823F4706343EA012136
:10053000116001680A6842F001020A60202180F817
:100540004110002180F84010084670470220704793
:1005500070B5040004D094F84100002510B106E005
:10056000012070BD84F84050204600F079F9242025
:1005700084F841002068016821F001010160606891
:10058000216820F0706008612068816821F40041D2
:100590008160E0680128A06807D040F40440216829
:1005A0008860E068022803D006E040F40040F6E7E7
:1005B00021684FF40060486020684168114A114387
:1005C00041602068C16821F40041C160D4E90401A0
:1005D0000843A16940EA01202168C860D4E9070105
:1005E0000843216808602068016841F0010101604A
:1005F0006564202084F84100256384F8425000207F
:1006000070BD0000008000022DE9F84F044690F80C
:100610004100DDF828A01F4690468B4620287ED159
:1006200094F8400001287AD0012084F84000FFF7B8
:1006300035FF0646012200901923D103204601F020
:10064000BBF8E0BB222084F84100102084F842006F
:1006500000256564C4F8248067856563618D314831
:10066000FF274FF080784FF00079FF2903D92785C5
:100670003A46009039E0618D218500903AE0594674
:10068000204601F083F813E001F0C2F8B8B9206801
:10069000406A616A0870606A401C6062208D401E7A
:1006A00080B22085618D491E6185618D01B168B17F
:1006B000608D3246002851462046E5D100E002E038
:1006C00001F0E8F8D0B1012000F030B85346002224
:1006D00080212046009601F06FF80028F3D1608D4C
:1006E000FF2804D927853A4600954346C7E7608D21
:1006F0002085009594F828204B46C0E721682020EB
:10070000C86121684A68084B1A404A6084F8410071
:1007100084F8425084F840500020D5E7FFE70220DB
:10072000D2E700000024008000E800FE18BCBDE80D
:10073000E08F00002DE9F84F044690F84100DDF805
:1007400028A01F4690468B4620287ED194F8400072
:1007500001287AD0012084F84000FFF79FFE06466A
:10076000012200901923D103204601F025F8E0BBB7
:10077000212084F84100102084F84200002565649F
:10078000C4F8248067856563618D3148FF274FF089
:1007900080784FF00079FF2903D927853A460090E9
:1007A00039E0618D218500903AE05946204600F0FD
:1007B000EDFF13E001F094F8B8B9606A21680078A1
:1007C0008862606A401C6062608D401E6085208D7A
:1007D000401E80B22085618D01B168B1608D3246C6
:1007E000002851462046E5D100E002E001F052F831
:1007F000D0B1012000F030B85346002280212046BD
:10080000009600F0D9FF0028F3D1608DFF2804D9AD
:1008100027853A4600954346C7E7608D20850095B9
:1008200094F828204B46C0E721682020C861216841
:100830004A68084B1A404A6084F8410084F84250E4
:1008400084F840500020D5E7FFE70220D2E70000FF
:100850000020008000E800FE18BCBDE8E08F00002A
:1008600010B586B0044614216846FFF7E8FC13492A
:100870002068884220D1124CE06C40F00100E06416
:10088000E06C694600F0010005904FF4C0600090F4
:100890001220019001200290032003900420049074
:1008A0004FF09040FFF71CFDA06D40F40010A065D4
:1008B000A06D00F40010059006B010BD005400407B
:1008C000001002400248816802781144816070473C
:1008D0001C00002010B50024032000F063F8002065
:1008E00000F008F808B1012401E000F025F82046E6
:1008F00010BD000070B50E4E05460024307898B14A
:100900004FF47A71B1FBF0F00A490968B1FBF0F0DD
:1009100000F098FD40B9102D06D200222946501E45
:1009200000F020F8756000E00124204670BD000052
:100930001C00002028000020094808B5016E41F085
:1009400001010166016E01F001010091816D41F02C
:1009500080518165806D00F08050009008BD0000DE
:1009600000100240F0B40E4B1B680C46C3F3022388
:10097000C3F10705042D00D90425191D072901D24B
:10098000002300E0DB1E012606FA05F1491E214086
:1009900099409E40761E16403143F0BC01F08DBC5C
:1009A0000CED00E0064900F0070208684FF6FF036F
:1009B000184040EA0220034A1043086070470000D4
:1009C0000CED00E00000FA051649B0F5007F08685C
:1009D000C0F3412009D0022805D0086820F4C06087
:1009E00040F480600860002070470128FBD0086850
:1009F00020F4C06040F4007008600B4832220068A8
:100A000050430A4AB0FBF2F0401C00E0401E4A6925
:100A1000520501D50028F9D148694005E3D50320E6
:100A200070470000007000402800002040420F0086
:100A30000248006800F4C060704700000070004089
:100A40002DE9F84F0446002700889C4D3E460005DE
:100A500015D5E06B60B1B0F5000F04D0B0F5400FD4
:100A60002BD001270AE0E86840F48030E86024E0F9
:100A70000021201D00F0C2FF07001ED03E46206866
:100A8000800338D5A86D4FF00008C00009D4A86DC8
:100A900040F08050A865A86D4FF0010800F080502C
:100AA0000090DFF81CA2DAF8001041F48071CAF857
:100AB0000010FFF7F3FC814610E0D5F88800E16BE9
:100AC00020F440000843C5F88800D8E7FFF7E6FCAB
:100AD000A0EB0900022801D9032704E0DAF800009E
:100AE000C005F3D5EFB33E46B8F1000F03D0A86DB3
:100AF00020F08050A8652078C00707D0D5F888007E
:100B0000216A20F003000843C5F888002078800798
:100B100007D5D5F88800616A20F00C000843C5F8B5
:100B200088002078800607D5D5F88800A16A20F4CF
:100B300040600843C5F888002088800507D5D5F8AF
:100B40008800616B20F440200843C5F888002088A5
:100B5000400509D5D5F88800A16B20F44010084362
:100B600000E02EE0C5F888002078400607D5D5F8CB
:100B70008800E16A20F440500843C5F888002088C6
:100B8000C00507D5D5F88800216B20F44030084314
:100B9000C5F8880020884FF0006780044FF0806817
:100BA0004ED5D5F88800216C20F040600843C5F888
:100BB0008800206CB8423BD1E86840F48010E860BF
:100BC0003EE0D5F8900010F4407014D0216D8142C1
:100BD00011D0D5F89000D5F8901020F4407041F471
:100BE0008031C5F89010D5F8901021F48031C5F807
:100BF0009010C5F89000C00711D0FFF74FFC0746D2
:100C000041F2883907E000BFFFF748FCC11B4945A6
:100C100001D9032668E7D5F890008007F4D5D5F808
:100C20009000216D20F440700843C5F890005BE708
:100C3000404505D10121201D00F0E0FE00B106462F
:100C40002068400317D5D5F88800616C20F040601B
:100C50000843C5F88800606CB84204D1E86840F4E5
:100C60008010E86007E0404505D10121201D00F01B
:100C7000C5FE00B106462088400411D5D5F888008D
:100C8000A16C20F040500843C5F88800A06CB0F17A
:100C9000805F05D10221201D00F0B0FE00B10646A4
:100CA0002088000406D555F8880FE16C20F08040BC
:100CB00008432860304600F005B8000000100240EC
:100CC0000070004018BCBDE8E08F00002DE9F0473F
:100CD0000F46050058D0404E306800F00700B8427B
:100CE00009D2306820F0070038433060306800F0E7
:100CF0000700B84248D12878384CC0072CD0686823
:100D0000032811D0022812D0216898B14905002982
:100D10003ADAA16821F003010143A160FFF7BEFBAD
:100D2000804641F2883910E021688901EFE72168A7
:100D30008903ECE78907EAE7FFF7B0FBA0EB0801BE
:100D4000494502D90320BDE8F087A068696800F032
:100D50000C00B0EB810FEFD12878800705D5A06893
:100D6000A96820F0F0000843A060306800F0070098
:100D7000B8420BD9306820F0070038433060306843
:100D800000F00700B84201D00120DCE728784007D6
:100D900005D5A068E96820F4E0600843A0602878E1
:100DA000000706D5A068296920F4605040EAC10018
:100DB000A06000F03FF8A168094AC1F30311515C3B
:100DC00001F01F01C8400749086007480068BDE8F6
:100DD000F047FFF78FBD00000020024000100240E6
:100DE000582500082800002020000020054806495A
:100DF00000688968054AC1F30221515C01F01F01B6
:100E0000C8407047280000200010024098250008C4
:100E10000548064900688968054AC1F3C221515C4A
:100E200001F01F01C8407047280000200010024058
:100E30009825000870B52549002318468A68CC68B3
:100E400012F00C0204F00306214C4FEA640509D0AD
:100E50000C2A05D0042A32D0082A00D1284670BDB9
:100E6000012E10D10B681B0704D4D1F89430C3F3C2
:100E7000032302E00B68C3F30313164E56F8233026
:100E8000DAB10C2AEBD1C86800F00300022818D0B0
:100E9000032818D01846CA68CB68C2F30212C3F3FD
:100EA00006234343521CB3FBF2F2C868C0F341600F
:100EB000401C4000B2FBF0F070BD184670BD2046EB
:100EC00070BD2046E7E72846E5E700000010024035
:100ED0000024F400682500082DE9F84304006FD0D1
:100EE000FE4DA86800F00C06E86800F003072078C3
:100EF000C00664D576B10C2E01D1012F0AD0A069AD
:100F0000002828687AD040F001002860FFF7C6FA70
:100F100080465DE02868800702D5A0690028DED001
:100F2000216A2868000703D5286800F0F00004E073
:100F3000D5F89400F02202EA1010814216D9084632
:100F400000F0F2FD00283BD1286840F0080028603E
:100F50002868216A20F0F000084328606868E16989
:100F600020F47F4040EA0120686016E0286840F0E5
:100F7000080028602868216A20F0F00008432860F3
:100F80006868E16920F47F4040EA0120686026B982
:100F9000206A00F0C9FD0028D5D1FFF74BFFA968F2
:100FA000CF4AC1F30311515C01F01F01C840CD4984
:100FB0000860CD480068FFF79DFC00287ED12EE038
:100FC000CAE000BFFFF76AFAA0EB0800022876D853
:100FD00028688007F6D5286840F00800286028684F
:100FE000216A20F0F000084328606868E16920F475
:100FF0007F4040EA0120686011E0FFE720F0010037
:101000002860FFF74BFA804606E000BFFFF746FA7C
:10101000A0EB08000228DAD828688007F6D42078E8
:10102000C00740D0082E18D00C2E01D1032F14D0A9
:101030006068B0F5803F17D0B0F5A02F286817D0B2
:1010400020F480302860286820F4802028606068C0
:10105000E0B1FFF723FA804614E02868800322D528
:101060006068002878D01EE0286840F48030EDE702
:1010700040F480202860F7E7FFF710FAA0EB0800A3
:101080006428A4D828688003F6D50CE0FFF706FA98
:10109000804605E0FFF702FAA0EB0800642896D826
:1010A00028688003F6D4207880073BD5042E11D021
:1010B0000C2E01D1022F0DD0E06801E0B6E1FFE077
:1010C000002828681ED040F480702860FFF7E6F9F9
:1010D00007460CE0286840050CD5E0680028C1D020
:1010E00008E000BFFFF7DAF9C01B022893D8286890
:1010F0004005F7D56868217C20F0FE4040EA016099
:1011000068600FE020F480702860FFF7C7F9074699
:1011100005E000BFFFF7C2F9C01B0228B1D828685C
:101120004005F7D42078000729D560690028D5F854
:10113000940012D040F00100C5F89400FFF7AEF91A
:10114000074604E0FFF7AAF9C01B022899D8D5F892
:1011500094008007F6D512E02BE120F00100C5F8DD
:101160009400FFF79BF9074605E000BFFFF796F9EB
:10117000C01B022885D8D5F894008007F6D42078C3
:10118000400766D5A86D0027C00008D4A86D40F0C0
:101190008050A865A86D012700F08050009053484A
:1011A0000168C90512D40168814641F4807101606B
:1011B000FFF774F9804605E0FFF770F9A0EB08002F
:1011C00002287DD8D9F80000C005F5D5A06801280F
:1011D00016D00528D5F8900017D020F00100C5F8EA
:1011E0009000D5F8900020F0040000BFC5F89000F2
:1011F000A06841F28839C0B1FFF750F980460FE08E
:10120000D5F8900040F00100F0E740F00400C5F888
:101210009000F5E7FFF742F9A0EB080149454FD8E8
:10122000D5F890008007F5D50EE0FFF737F9804636
:1012300006E000BFFFF732F9A0EB080149453FD8AF
:10124000D5F890008007F5D41FB1A86D20F080502C
:10125000A8652078800628D5606A0028D5F898000F
:1012600012D040F00100C5F89800FFF717F90746C3
:1012700005E000BFFFF712F9C01B022820D8D5F8FF
:1012800098008007F6D510E020F00100C5F898001E
:10129000FFF704F9074604E0FFF700F9C01B022836
:1012A0000ED8D5F898008007F6D4A06AA8B1022815
:1012B00024D00C2E7DD0286820F08070286000E0BB
:1012C000B3E02868000103D4E86820F00300E86078
:1012D000E86807490840E8600CE09FE00010024021
:1012E0005825000828000020200000200070004041
:1012F000FFFFEEFEFFF7D2F8044699E0E868E26AE5
:1013000000F00301914226D1216B00F07002090127
:10131000103991421FD1626B00F4FE41B1EB022FF4
:1013200019D194F8382000F07841B1EBC26F12D196
:10133000A18F00F4C00249084905A1F500119142AE
:1013400009D194F8401000F0C06049084906A1F1A5
:10135000007181424BD00C2E6FD0286840016CD4B4
:10136000286820F080702860FFF798F8064604E0AF
:10137000FFF794F8801B022857D828688001F7D41B
:10138000F4E90B016FF00F0202EB01110843218A0F
:101390005204490802EB4151A26841EA0221084384
:1013A000217D4FF07E42490802EB41610843217BD9
:1013B00000E042E040EAC160E968214A1140084388
:1013C000E860286840F080702860E86840F080702D
:1013D000E860FFF763F8044605E000BFFFF75EF83A
:1013E000001B022821D828688001F7D523E028684F
:1013F000800120D4286840F080702860E86840F0C0
:101400008070E860FFF74AF8044604E0FFF746F80A
:10141000001B022809D828688001F7D50BE000BF1F
:10142000FFF73CF8001B022802D90320BDE8F8832F
:1014300028688001F4D40020F8E70120F6E70000D6
:101440008C809D0110B5401EB0F1807F01D301203A
:1014500010BD4FF0E02460610F21601700F02DFFF8
:101460000020A06107202061002010BD10B50400FD
:1014700002D0606F10B107E0012010BD002084F899
:101480007000204600F026F824206067206801687C
:1014900021F001010160204600F0CAFD0128ECD0D6
:1014A000606A10B1204600F033FD2068416821F4E5
:1014B000904141602068816821F02A0181602068A4
:1014C000016841F0010101602046BDE8104000F0D4
:1014D00083BD000010B586B0044614216846FEF7AF
:1014E000AEFE1249206888421ED11148016E41F4B7
:1014F00080410166016E01F480410591C16C41F0AB
:101500000201C164C06C694600F002000590C02071
:1015100000900220019000200290032003900720F9
:1015200004900448FEF7DCFE06B010BD0038014010
:1015300000100240000400482DE9F84F0446806F77
:101540009A4616460D4620286BD1EDB1E6B194F8C7
:101550007000012865D0012084F870004FF0000869
:10156000C4F87C802220A067FEF798FFA4F858609A
:101570008146A4F85A60A0684FF48053FF21984236
:1015800008D122691AB11CE0012000F04CB840F2E9
:10159000FF1116E07F2290B1B0F1805F14D0A4F863
:1015A0005C8000BFB4F85C70984201D1206990B1B2
:1015B0002E46002584F8708007F0FF0825E0266994
:1015C00036B9A4F85C10EDE7216909B13F21F8E7CD
:1015D000A4F85C20E6E70026ECE74B460022202139
:1015E0002046CDF800A000F015FE08B10320CCE79E
:1015F0002068808C8EB100EA080006F8010B00BF5D
:10160000B4F85A00401EA4F85A00B4F85A00002852
:10161000E3D12020A0670020B7E7384025F8020B6F
:10162000EEE70220B1E718BCBDE8E08F2DE9F843F2
:101630000446406F1F4616460D4620284FD1CDB1B7
:10164000C6B194F87000012849D0012084F87000D8
:101650004FF00008C4F87C8021206067FEF71EFF71
:10166000A4F850608146A4F85260A068B0F5805F8D
:1016700003D004E00120BDE8F883206928B12E469C
:101680005FF0000584F8708010E00026FAE7802102
:10169000204600F0BFFDB8B9C6B116F8010B2168AD
:1016A0000885B4F85200401EA4F85200B4F8520065
:1016B0004B464FF0000200970028E8D14FF0400160
:1016C000204600F0A7FD30B10320D4E735F8020B27
:1016D000C0F30800E3E7202060670020CBE702208A
:1016E000C9E7FEE701688A69D243920701D4002264
:1016F0008A6200688169C943C90703D0816941F0E2
:1017000001018161704700002DE9F0410446006845
:1017100090460E468069C043C00633D4002520277A
:1017200020688069C043800615D5701CF8D0FEF78C
:10173000B5FEA0EB0800B04201D8002EF0D154F85D
:10174000440F40F0200044F804096770A57025702C
:101750000120BDE8F08121681020C8612068C761C0
:101760002046FFF7BFFF54F8440B4168064A11407A
:101770004160206840F0040044F820096777A577AD
:101780002577E5E70020E4E700E800FEF0B505680E
:10179000059C68684FF48066064FC1F3090106EAAC
:1017A000545641EA02413E431943B04321430843A2
:1017B0006860F0BDFF63FF032DE9F0411D46174649
:1017C0000E460446DDF8188008E0681C06D0FEF7D7
:1017D00065FEA0EB0800A8420BD855B120688069CF
:1017E00036EA000012D00020B842EED00020BDE85A
:1017F000F08154F8440F40F0200044F80409202000
:1018000060700020A07020700120F0E70120EBE75D
:101810002DE9F041002690460F460446202525E09C
:10182000424639462046FFF76FFF78BB2068806943
:10183000C043800613D420688169C943490701D495
:10184000218DC1B9C56154F8440B4168104A11405B
:10185000416044F820696577A677267716E0FEF7A1
:101860001DFEA0EB0800B84208D83FB1206880698F
:10187000C0434007D4D40020BDE8F08154F8440FA1
:1018800040F0200044F80409657026700120F3E759
:1018900000E800FE70B516460D4604460DE03246DF
:1018A00029462046FFF730FF08B1012070BDFEF742
:1018B000F5FD801BA84207D835B120688069C04378
:1018C0008006ECD4002070BD54F8440F40F0200096
:1018D00044F80409202060700020A0702070E4E724
:1018E00070B516460D4604460FE03246294620469E
:1018F000FFF70AFF08B1012070BD681C05D0FEF794
:10190000CDFD801BA84207D835B120688069C0434F
:101910008007EAD4002070BD54F8440F40F0200046
:1019200044F80409202060700020A0702070E2E7D5
:1019300010B50748FFF786FD064C0221206800F02D
:1019400054F86068BDE81040012100F04EB8000076
:10195000CE083D0014000020124810B51049016067
:101960001149416000210122C0E902120161416177
:101970008161C1610162FEF7EBFD08B172B6FEE75D
:1019800000210848FEF790FD08B172B6FEE700217D
:101990000448FEF7B4FD002801D072B6FEE710BD82
:1019A0000054004034000020EC9C90100C4810B50E
:1019B0000A4901604FF4E1314160002181600C224D
:1019C000C160C0E904128161C16101624162FFF737
:1019D0004DFD002801D072B6FEE710BD0038014071
:1019E00080000020FEE7FEE77047002901DA0021B1
:1019F00002E0082900DD082100F07CBD2DE9F0415E
:101A0000444C05468846E0680026810728680DD0CA
:101A1000E16801F00301814216D1A8B1E06869686C
:101A2000C0F30210401C88420ED120E0012804D0EF
:101A3000022805D0032807D108E02168890701E0C2
:101A400021684905002907DB01265FE02168890339
:101A500002D421684903F5E7E1686A686FF00F0373
:101A600021F0730103EB021211430143E16020688E
:101A700020F080602060FEF711FD074605E000BF02
:101A8000FEF70CFDC01B022837D820680001F7D4F0
:101A9000B8F1000F18D0B8F1010F1DD0287D4FF01C
:101AA0007E41400801EB4060A96840EA01202169BD
:101AB000194A114008432061206840F0806020608E
:101AC000FEF7ECFC07461AE0A868297B000240EA12
:101AD000C1602169114AECE7288A1149400801EBED
:101AE0004050A96840EA012021690E4AE1E700BFA1
:101AF000FEF7D4FCC01B022801D9032606E02068AB
:101B00000001F5D52069A969084320613046BDE888
:101B1000F081000000100240FF80FFF9FF80FF0706
:101B20000000E0FFFF809FFFF8B51C4D0646002433
:101B3000A86DC00002D5FEF77BFF0DE0A86D40F058
:101B40008050A865A86D00F080500090FEF770FFEF
:101B5000A96D21F08051A965B0F5007F04D0802ED9
:101B600007D94FF003040AE0802E08D9A02E01D82F
:101B700004E001D1022402E0702E00D101240848C3
:101B8000016821F0070121430160006800F00700AF
:101B9000A04201D00120F8BD0020F8BD0010024095
:101BA00000200240054989680A6818B101461046BC
:101BB00000F0A2BB49681046FFF717BF00000020E5
:101BC000704710B5012000F0C9FBBDE81040FEF7DA
:101BD00079BE10B5ACB044216846FEF730FB142145
:101BE00026A8FEF72CFB542111A8FEF728FB102095
:101BF00000900120002460210690CDE907410221D8
:101C0000CDE90A100C9028200D900720CDE90E0197
:101C100068461091FFF760F908B172B6FEE70F2031
:101C200026900320CDE927042994042126A82A948C
:101C3000FFF74CF808B172B6FEE7412011901994F5
:101C40001C9411A8FEF7FCFE08B172B6FEE74FF433
:101C50000070FEF7B9FE002801D072B6FEE72CB086
:101C600010BD00000D48016841F4700101600C488E
:101C7000016841F001010160002181600268094BA7
:101C80001A4002608214C260026822F4802202605C
:101C900081610249C00380390860704788ED00E027
:101CA00000100240FFFFF6EA30B589B00E218DF832
:101CB00010100F208DF81C00112100208DF8141039
:101CC00012218DF8181062A28DF81D008DF81100F8
:101CD0008DF815008DF8190007CA0A2401AD00948B
:101CE00085E80700012307AAD1215C48FEF722FD01
:101CF00001230DF11D02D12158480094FEF784FC08
:101D0000012304AAD12155480094FEF77DFC9DF8DB
:101D10001100012340F020008DF8110004AAD02109
:101D20004E480094FEF706FD012305AAD0214B483A
:101D30000094FEF7FFFC01230DF11502D121474865
:101D40000094FEF761FC012306AAD02143480094C9
:101D5000FEF7F0FC01230DF11902D1213F48009458
:101D6000FEF752FC9DF81500C10901D02D2100E0BD
:101D70002B218DF8041000F07F008DF805009DF8F0
:101D80001910890901EBC10202EB011130228DF813
:101D900008100A280CD3B0FBF4F304FB1303B0FBC8
:101DA000F4F030338DF8063030308DF8050004E063
:101DB00030308DF806008DF805200A290CD3B1FBD0
:101DC000F4F004FB101030308DF80900B1FBF4F092
:101DD00030308DF8080004E030318DF809108DF8AE
:101DE00008201E480A2319221DA14C30FFF71EFCB3
:101DF0001A480A231A4601A94C30FFF717FC1F485E
:101E00009DF80410027891421CD89DF80510427884
:101E1000914217D39DF806108078814212D30F4863
:101E20000A23302216A14C30FFF700FC204D00247D
:101E300008212846FEF725FB0520FEF73FFA641C23
:101E40000A2CF5DB4FF41670FFF7ACFE09B030BD7D
:101E50002B00002E0000B0430D0A000034000020CB
:101E60000A0D43757272656E742054656D707261EF
:101E7000747572652069733A20000000010000202B
:101E80000A0D5741524E494E4721212054656D702D
:101E90002045584345444445442054484520544532
:101EA0004D50205448524553484F4C4421210A007C
:101EB000000400482DE9F0410A231C220AA112481F
:101EC000FFF7B4FB0024114D671E6E1C3B46012238
:101ED0000E490D48FFF730FB28783055641C032C61
:101EE000F4DBBDE8F08100000A0D456E74657220D8
:101EF000596F75722074656D7020546872657368CF
:101F00006F6C6420000000008000002000000020B2
:101F100090F82410C90706D001684A68836A22F441
:101F200000321A434A6090F82410890706D50168E8
:101F30004A68C36A22F480321A434A6090F8241037
:101F4000490706D501684A68036B22F480221A43C8
:101F50004A6090F82410090706D501684A68436B67
:101F600022F400421A434A6090F82410C90606D5AC
:101F700001688A68836B22F480521A438A6090F861
:101F80002410890606D501688A68C36B22F40052C2
:101F90001A438A6090F82410490611D501684A68EE
:101FA000036C22F480121A434A60016CB1F5801F61
:101FB00006D101684A68436C22F4C0021A434A60A1
:101FC00090F82410090606D501684A68806C22F44E
:101FD000002202434A607047F8B500260446C667EF
:101FE000FEF75CFA0546206800686FF07E47000740
:101FF00008D52B4600224FF400112046009700F030
:1020000009F960B92068006840070AD52B4600220C
:102010004FF480012046009700F0FCF808B103203F
:10202000F8BD20206067A06784F870600020F8BDCC
:102030002DE9F0410446016880682269E369104394
:10204000626900251A4310436B4F0A686B4B1A40B4
:1020500002430A6020684168E26821F4405111435C
:1020600041602168A069B94201D0226A10438A68A0
:1020700022F4306202438A606149236861488B42DE
:102080000DD1D0F8880010F0030006D0012838D018
:10209000022834D0032821D135E001211FE05A491C
:1020A0008B420BD1D0F8880010F00C0025D004280A
:1020B00027D0082823D00C2810D124E0BB420DD112
:1020C000D0F8880010F4406017D0B0F5806F18D0B9
:1020D000B0F5006F13D0B0F5406F14D010214B480D
:1020E00000264FF40042BB422FD171B1022912D019
:1020F00004290DD0082973D125E00021EFE7022142
:10210000EDE70421EBE70821E9E7FEF76FFE01E0C8
:10211000FEF790FEF0B3626802EB420181425FD8A5
:10212000B0EB023F5CD8010E000273084FEA3207A1
:10213000C01959410023FEF747F8354AA0F5407110
:10214000914251D94CE01046E5E7E3694FF6EF774D
:10215000934229D1092943D2DFE801F005080E4254
:102160000B4242422400FEF741FE04E0FEF750FE1F
:1021700001E0FEF75FFE68B14100606801EB5001CD
:10218000B1FBF0F080B2A0F11001B94228D84FF6AF
:10219000F07100E02AE00140C0F3420001432068F2
:1021A000C16023E01046E7E7092919D2DFE801F012
:1021B00005080E180B1818181A00FEF717FE04E091
:1021C000FEF726FE01E0FEF735FE78B1616800EB10
:1021D0005100B0FBF1F080B2A0F11001B94203D977
:1021E000012503E01046F1E72168C860266628460D
:1021F0006666BDE8F081000000800040F369FFEFF3
:102200000038014000100240004400400024F40067
:10221000FFFC0F002DE9F0479A4617460E4604468C
:102220004FF000094FF02008089D39E0681C37D0B6
:10223000FEF734F9A0EB0A00A84222D80DB32068BB
:10224000016849072CD5C069C043000528D421681E
:102250004FF4006008622068016821F4D0710160C9
:102260002068816821F001018160C4F87480C4F89D
:102270007880C4F87C8000BF84F870900320BDE8AB
:10228000F0872068016821F4D071016020688168BE
:1022900021F001018160C4F87480C4F87880EBE714
:1022A0002068C06936EA000004D00020B842BDD0E2
:1022B0000020E4E70120F9E7FEE70907090E0028FE
:1022C00004DB00F1E02080F80014704700F00F00FC
:1022D00000F1E02080F8141D704702E008C8121FCA
:1022E00008C1002AFAD170477047002001E001C1FF
:1022F000121F002AFBD170472DE9F041164C06460B
:10230000002720690D4600284FF00C000ED000F089
:10231000BBF88760C0E9006521694968A942E168A6
:102320000EDD0A6882600860BDE8F08100F0ACF85C
:1023300020618760C0E9006507481030E060F3E77E
:10234000096800E011468A6812B15368AB42F9DBB4
:1023500082608860E8E700000000002070B50D4D45
:1023600006462C690EE06068801B606009D1002180
:102370002068FFF73AFBE968086882680A6000F0A5
:1023800021F8A468002CEED12046BDE8704000F092
:1023900019B800000000002070B5094CA0680028A2
:1023A0000CD06068056828688047606801688968A3
:1023B00001602846BDE8704000F004B870BD000020
:1023C0000000002010B5002821D0114B0022001F72
:1023D000196803E0814203D80A4649680029F9D107
:1023E00052B11368841A9C4204D1006818441060EA
:1023F000104602E0506000E0186039B102680B1A24
:10240000934203D10B681A4402604968416010BDD1
:102410002C00002086B0FEF75DFAFFF7DAFB1421EE
:102420006846FDF70CFF1648C16C41F00101C1641C
:10243000C16C01F001010591C16C41F00201C16460
:10244000C06C104C00F002000590002208212046CC
:10245000FEF71FF80820009001200021CDE90101BE
:10246000039169462046FDF73BFFFFF775FAFFF73A
:102470009DFAFFF75DFA00BFFFF78EFFFCE7000053
:102480000010024000040048F0B50B30154D20F05C
:1024900007010024144A0FE003688B420BD38B42E0
:1024A00005D95E1A43184768C3E9006700E043682E
:1024B000136002C004E0021D10680028ECD1204621
:1024C000002802D1286808B10020F0BD064A07485C
:1024D0001060074A121A22F00702C0E90024012006
:1024E0002860D7E7300000202C00002004010020E5
:1024F000000300202DE9F041164C06460027A06895
:102500000D4600284FF00C000ED0FFF7BDFF87608E
:10251000C0E90065A1684968A94261680EDD0A68E2
:1025200082600860BDE8F081FFF7AEFFA0608760C1
:10253000C0E90065074808306060F3E7096800E01B
:1025400011468A6812B15368AB42F9DB8260886039
:10255000E8E700000000002000000000000000008C
:102560000102030406070809A0860100400D0300CC
:10257000801A060000350C0040420F0080841E00C7
:1025800000093D0000127A000024F40000366E01BC
:102590000048E801006CDC020000000001020304B6
:1025A000C02500080000002034000000DA220008E6
:1025B000F425000834000020CC060000EA220008C0
:1025C000000000000000000000000000000000000B
:1025D00000000000A91C0008B51E00080100000052
:1025E000100000000000000000093D000000000095
:0425F00000000000E7
:040000050800018D61
:00000001FF
